{
  "_format": "hh-sol-artifact-1",
  "contractName": "MemeRunnerBets",
  "sourceName": "contracts/MemeRunnerBets.sol",
  "abi": [
    {
      "inputs": [],
      "stateMutability": "nonpayable",
      "type": "constructor"
    },
    {
      "anonymous": false,
      "inputs": [
        {
          "indexed": true,
          "internalType": "uint256",
          "name": "betId",
          "type": "uint256"
        },
        {
          "indexed": false,
          "internalType": "address",
          "name": "bettor",
          "type": "address"
        },
        {
          "indexed": false,
          "internalType": "uint256",
          "name": "amount",
          "type": "uint256"
        }
      ],
      "name": "BetPlaced",
      "type": "event"
    },
    {
      "anonymous": false,
      "inputs": [
        {
          "indexed": true,
          "internalType": "uint256",
          "name": "betId",
          "type": "uint256"
        },
        {
          "indexed": false,
          "internalType": "address",
          "name": "bettor",
          "type": "address"
        },
        {
          "indexed": false,
          "internalType": "bool",
          "name": "outcome",
          "type": "bool"
        },
        {
          "indexed": false,
          "internalType": "uint256",
          "name": "amount",
          "type": "uint256"
        }
      ],
      "name": "BetSettled",
      "type": "event"
    },
    {
      "inputs": [],
      "name": "BLAST",
      "outputs": [
        {
          "internalType": "contract IBlast",
          "name": "",
          "type": "address"
        }
      ],
      "stateMutability": "view",
      "type": "function"
    },
    {
      "inputs": [
        {
          "internalType": "uint256",
          "name": "",
          "type": "uint256"
        }
      ],
      "name": "bets",
      "outputs": [
        {
          "internalType": "address",
          "name": "bettor",
          "type": "address"
        },
        {
          "internalType": "string",
          "name": "platform",
          "type": "string"
        },
        {
          "internalType": "string",
          "name": "memecoin",
          "type": "string"
        },
        {
          "internalType": "uint256",
          "name": "metricCurrentValue",
          "type": "uint256"
        },
        {
          "internalType": "uint256",
          "name": "betCreationTime",
          "type": "uint256"
        },
        {
          "internalType": "uint256",
          "name": "betEndTime",
          "type": "uint256"
        },
        {
          "internalType": "string",
          "name": "outcomeDirection",
          "type": "string"
        },
        {
          "internalType": "uint256",
          "name": "amount",
          "type": "uint256"
        },
        {
          "internalType": "bool",
          "name": "outcome",
          "type": "bool"
        },
        {
          "internalType": "bool",
          "name": "settled",
          "type": "bool"
        }
      ],
      "stateMutability": "view",
      "type": "function"
    },
    {
      "inputs": [
        {
          "internalType": "address",
          "name": "",
          "type": "address"
        },
        {
          "internalType": "uint256",
          "name": "",
          "type": "uint256"
        }
      ],
      "name": "betsByAddress",
      "outputs": [
        {
          "internalType": "uint256",
          "name": "",
          "type": "uint256"
        }
      ],
      "stateMutability": "view",
      "type": "function"
    },
    {
      "inputs": [
        {
          "internalType": "uint256",
          "name": "_betId",
          "type": "uint256"
        }
      ],
      "name": "getBet",
      "outputs": [
        {
          "components": [
            {
              "internalType": "address",
              "name": "bettor",
              "type": "address"
            },
            {
              "internalType": "string",
              "name": "platform",
              "type": "string"
            },
            {
              "internalType": "string",
              "name": "memecoin",
              "type": "string"
            },
            {
              "internalType": "uint256",
              "name": "metricCurrentValue",
              "type": "uint256"
            },
            {
              "internalType": "uint256",
              "name": "betCreationTime",
              "type": "uint256"
            },
            {
              "internalType": "uint256",
              "name": "betEndTime",
              "type": "uint256"
            },
            {
              "internalType": "string",
              "name": "outcomeDirection",
              "type": "string"
            },
            {
              "internalType": "uint256",
              "name": "amount",
              "type": "uint256"
            },
            {
              "internalType": "bool",
              "name": "outcome",
              "type": "bool"
            },
            {
              "internalType": "bool",
              "name": "settled",
              "type": "bool"
            }
          ],
          "internalType": "struct MemeRunnerBets.Bet",
          "name": "",
          "type": "tuple"
        }
      ],
      "stateMutability": "view",
      "type": "function"
    },
    {
      "inputs": [
        {
          "internalType": "address",
          "name": "_bettor",
          "type": "address"
        }
      ],
      "name": "getBetsByAddress",
      "outputs": [
        {
          "internalType": "uint256[]",
          "name": "",
          "type": "uint256[]"
        }
      ],
      "stateMutability": "view",
      "type": "function"
    },
    {
      "inputs": [],
      "name": "nextBetId",
      "outputs": [
        {
          "internalType": "uint256",
          "name": "",
          "type": "uint256"
        }
      ],
      "stateMutability": "view",
      "type": "function"
    },
    {
      "inputs": [
        {
          "internalType": "string",
          "name": "_platform",
          "type": "string"
        },
        {
          "internalType": "string",
          "name": "_memecoin",
          "type": "string"
        },
        {
          "internalType": "uint256",
          "name": "_metricCurrentValue",
          "type": "uint256"
        },
        {
          "internalType": "uint256",
          "name": "_betEndTime",
          "type": "uint256"
        },
        {
          "internalType": "string",
          "name": "_outcomeDirection",
          "type": "string"
        }
      ],
      "name": "placeBet",
      "outputs": [],
      "stateMutability": "payable",
      "type": "function"
    },
    {
      "inputs": [
        {
          "internalType": "uint256",
          "name": "_betId",
          "type": "uint256"
        }
      ],
      "name": "settleBet",
      "outputs": [],
      "stateMutability": "nonpayable",
      "type": "function"
    }
  ],
  "bytecode": "0x6080604052600060025534801561001557600080fd5b5073430000000000000000000000000000000000000273ffffffffffffffffffffffffffffffffffffffff16637114177a6040518163ffffffff1660e01b8152600401600060405180830381600087803b15801561007257600080fd5b505af1158015610086573d6000803e3d6000fd5b50505050611e03806100996000396000f3fe60806040526004361061007b5760003560e01c8063735f08411161004e578063735f08411461014857806397d75776146101855780639aca2792146101b0578063ed6ddfa0146101db5761007b565b8063061e494f1461008057806316fd381a146100bd57806322af00fa146100e65780634a06f7da1461012c575b600080fd5b34801561008c57600080fd5b506100a760048036038101906100a29190610eef565b610218565b6040516100b491906110ff565b60405180910390f35b3480156100c957600080fd5b506100e460048036038101906100df9190610eef565b610506565b005b3480156100f257600080fd5b5061010d60048036038101906101089190610eef565b610847565b6040516101239a99989796959493929190611198565b60405180910390f35b6101466004803603810190610141919061137e565b610a7d565b005b34801561015457600080fd5b5061016f600480360381019061016a9190611479565b610d47565b60405161017c9190611555565b60405180910390f35b34801561019157600080fd5b5061019a610dde565b6040516101a791906115d6565b60405180910390f35b3480156101bc57600080fd5b506101c5610df6565b6040516101d291906115f1565b60405180910390f35b3480156101e757600080fd5b5061020260048036038101906101fd919061160c565b610dfc565b60405161020f91906115f1565b60405180910390f35b610220610e38565b6000805490508210610267576040517f08c379a000000000000000000000000000000000000000000000000000000000815260040161025e90611698565b60405180910390fd5b6000828154811061027b5761027a6116b8565b5b9060005260206000209060090201604051806101400160405290816000820160009054906101000a900473ffffffffffffffffffffffffffffffffffffffff1673ffffffffffffffffffffffffffffffffffffffff1673ffffffffffffffffffffffffffffffffffffffff1681526020016001820180546102fb90611716565b80601f016020809104026020016040519081016040528092919081815260200182805461032790611716565b80156103745780601f1061034957610100808354040283529160200191610374565b820191906000526020600020905b81548152906001019060200180831161035757829003601f168201915b5050505050815260200160028201805461038d90611716565b80601f01602080910402602001604051908101604052809291908181526020018280546103b990611716565b80156104065780601f106103db57610100808354040283529160200191610406565b820191906000526020600020905b8154815290600101906020018083116103e957829003601f168201915b5050505050815260200160038201548152602001600482015481526020016005820154815260200160068201805461043d90611716565b80601f016020809104026020016040519081016040528092919081815260200182805461046990611716565b80156104b65780601f1061048b576101008083540402835291602001916104b6565b820191906000526020600020905b81548152906001019060200180831161049957829003601f168201915b50505050508152602001600782015481526020016008820160009054906101000a900460ff161515151581526020016008820160019054906101000a900460ff1615151515815250509050919050565b600080828154811061051b5761051a6116b8565b5b906000526020600020906009020190508060000160009054906101000a900473ffffffffffffffffffffffffffffffffffffffff1673ffffffffffffffffffffffffffffffffffffffff163373ffffffffffffffffffffffffffffffffffffffff16146105bd576040517f08c379a00000000000000000000000000000000000000000000000000000000081526004016105b4906117b9565b60405180910390fd5b8060080160019054906101000a900460ff161561060f576040517f08c379a000000000000000000000000000000000000000000000000000000000815260040161060690611825565b60405180910390fd5b8060050154421015610656576040517f08c379a000000000000000000000000000000000000000000000000000000000815260040161064d90611891565b60405180910390fd5b600061066183610e2d565b905080156107a557600073430000000000000000000000000000000000000273ffffffffffffffffffffffffffffffffffffffff1663f9719662308560000160009054906101000a900473ffffffffffffffffffffffffffffffffffffffff1686600701546040518463ffffffff1660e01b81526004016106e4939291906118b1565b6020604051808303816000875af1158015610703573d6000803e3d6000fd5b505050506040513d601f19601f8201168201806040525081019061072791906118fd565b90508260000160009054906101000a900473ffffffffffffffffffffffffffffffffffffffff1673ffffffffffffffffffffffffffffffffffffffff166108fc8285600701546107779190611959565b9081150290604051600060405180830381858888f193505050501580156107a2573d6000803e3d6000fd5b50505b808260080160006101000a81548160ff02191690831515021790555060018260080160016101000a81548160ff021916908315150217905550827fe730d6310bec1dfc964bdf1e3f75a78c8ef2dee9d092f9ff09253258852ed7d48360000160009054906101000a900473ffffffffffffffffffffffffffffffffffffffff1683856007015460405161083a9392919061198d565b60405180910390a2505050565b6000818154811061085757600080fd5b90600052602060002090600902016000915090508060000160009054906101000a900473ffffffffffffffffffffffffffffffffffffffff16908060010180546108a090611716565b80601f01602080910402602001604051908101604052809291908181526020018280546108cc90611716565b80156109195780601f106108ee57610100808354040283529160200191610919565b820191906000526020600020905b8154815290600101906020018083116108fc57829003601f168201915b50505050509080600201805461092e90611716565b80601f016020809104026020016040519081016040528092919081815260200182805461095a90611716565b80156109a75780601f1061097c576101008083540402835291602001916109a7565b820191906000526020600020905b81548152906001019060200180831161098a57829003601f168201915b5050505050908060030154908060040154908060050154908060060180546109ce90611716565b80601f01602080910402602001604051908101604052809291908181526020018280546109fa90611716565b8015610a475780601f10610a1c57610100808354040283529160200191610a47565b820191906000526020600020905b815481529060010190602001808311610a2a57829003601f168201915b5050505050908060070154908060080160009054906101000a900460ff16908060080160019054906101000a900460ff1690508a565b60003411610ac0576040517f08c379a0000000000000000000000000000000000000000000000000000000008152600401610ab790611a36565b60405180910390fd5b428211610b02576040517f08c379a0000000000000000000000000000000000000000000000000000000008152600401610af990611ac8565b60405180910390fd5b600060026000815480929190610b1790611ae8565b91905055905060006040518061014001604052803373ffffffffffffffffffffffffffffffffffffffff16815260200188815260200187815260200186815260200142815260200185815260200184815260200134815260200160001515815260200160001515815250908060018154018082558091505060019003906000526020600020906009020160009091909190915060008201518160000160006101000a81548173ffffffffffffffffffffffffffffffffffffffff021916908373ffffffffffffffffffffffffffffffffffffffff1602179055506020820151816001019081610c069190611cd2565b506040820151816002019081610c1c9190611cd2565b50606082015181600301556080820151816004015560a0820151816005015560c0820151816006019081610c509190611cd2565b5060e082015181600701556101008201518160080160006101000a81548160ff0219169083151502179055506101208201518160080160016101000a81548160ff0219169083151502179055505050600160003373ffffffffffffffffffffffffffffffffffffffff1673ffffffffffffffffffffffffffffffffffffffff168152602001908152602001600020819080600181540180825580915050600190039060005260206000200160009091909190915055807f87b9df6fa7123c2e6044c3a3a37b4b0662c188d7a58ef86ee55067c46e4613ad3334604051610d37929190611da4565b60405180910390a2505050505050565b6060600160008373ffffffffffffffffffffffffffffffffffffffff1673ffffffffffffffffffffffffffffffffffffffff168152602001908152602001600020805480602002602001604051908101604052809291908181526020018280548015610dd257602002820191906000526020600020905b815481526020019060010190808311610dbe575b50505050509050919050565b73430000000000000000000000000000000000000281565b60025481565b60016020528160005260406000208181548110610e1857600080fd5b90600052602060002001600091509150505481565b600060019050919050565b604051806101400160405280600073ffffffffffffffffffffffffffffffffffffffff168152602001606081526020016060815260200160008152602001600081526020016000815260200160608152602001600081526020016000151581526020016000151581525090565b6000604051905090565b600080fd5b600080fd5b6000819050919050565b610ecc81610eb9565b8114610ed757600080fd5b50565b600081359050610ee981610ec3565b92915050565b600060208284031215610f0557610f04610eaf565b5b6000610f1384828501610eda565b91505092915050565b600073ffffffffffffffffffffffffffffffffffffffff82169050919050565b6000610f4782610f1c565b9050919050565b610f5781610f3c565b82525050565b600081519050919050565b600082825260208201905092915050565b60005b83811015610f97578082015181840152602081019050610f7c565b60008484015250505050565b6000601f19601f8301169050919050565b6000610fbf82610f5d565b610fc98185610f68565b9350610fd9818560208601610f79565b610fe281610fa3565b840191505092915050565b610ff681610eb9565b82525050565b60008115159050919050565b61101181610ffc565b82525050565b6000610140830160008301516110306000860182610f4e565b50602083015184820360208601526110488282610fb4565b915050604083015184820360408601526110628282610fb4565b91505060608301516110776060860182610fed565b50608083015161108a6080860182610fed565b5060a083015161109d60a0860182610fed565b5060c083015184820360c08601526110b58282610fb4565b91505060e08301516110ca60e0860182610fed565b506101008301516110df610100860182611008565b506101208301516110f4610120860182611008565b508091505092915050565b600060208201905081810360008301526111198184611017565b905092915050565b61112a81610f3c565b82525050565b600082825260208201905092915050565b600061114c82610f5d565b6111568185611130565b9350611166818560208601610f79565b61116f81610fa3565b840191505092915050565b61118381610eb9565b82525050565b61119281610ffc565b82525050565b6000610140820190506111ae600083018d611121565b81810360208301526111c0818c611141565b905081810360408301526111d4818b611141565b90506111e3606083018a61117a565b6111f0608083018961117a565b6111fd60a083018861117a565b81810360c083015261120f8187611141565b905061121e60e083018661117a565b61122c610100830185611189565b61123a610120830184611189565b9b9a5050505050505050505050565b600080fd5b600080fd5b7f4e487b7100000000000000000000000000000000000000000000000000000000600052604160045260246000fd5b61128b82610fa3565b810181811067ffffffffffffffff821117156112aa576112a9611253565b5b80604052505050565b60006112bd610ea5565b90506112c98282611282565b919050565b600067ffffffffffffffff8211156112e9576112e8611253565b5b6112f282610fa3565b9050602081019050919050565b82818337600083830152505050565b600061132161131c846112ce565b6112b3565b90508281526020810184848401111561133d5761133c61124e565b5b6113488482856112ff565b509392505050565b600082601f83011261136557611364611249565b5b813561137584826020860161130e565b91505092915050565b600080600080600060a0868803121561139a57611399610eaf565b5b600086013567ffffffffffffffff8111156113b8576113b7610eb4565b5b6113c488828901611350565b955050602086013567ffffffffffffffff8111156113e5576113e4610eb4565b5b6113f188828901611350565b945050604061140288828901610eda565b935050606061141388828901610eda565b925050608086013567ffffffffffffffff81111561143457611433610eb4565b5b61144088828901611350565b9150509295509295909350565b61145681610f3c565b811461146157600080fd5b50565b6000813590506114738161144d565b92915050565b60006020828403121561148f5761148e610eaf565b5b600061149d84828501611464565b91505092915050565b600081519050919050565b600082825260208201905092915050565b6000819050602082019050919050565b60006114de8383610fed565b60208301905092915050565b6000602082019050919050565b6000611502826114a6565b61150c81856114b1565b9350611517836114c2565b8060005b8381101561154857815161152f88826114d2565b975061153a836114ea565b92505060018101905061151b565b5085935050505092915050565b6000602082019050818103600083015261156f81846114f7565b905092915050565b6000819050919050565b600061159c61159761159284610f1c565b611577565b610f1c565b9050919050565b60006115ae82611581565b9050919050565b60006115c0826115a3565b9050919050565b6115d0816115b5565b82525050565b60006020820190506115eb60008301846115c7565b92915050565b6000602082019050611606600083018461117a565b92915050565b6000806040838503121561162357611622610eaf565b5b600061163185828601611464565b925050602061164285828601610eda565b9150509250929050565b7f42657420646f6573206e6f742065786973742e00000000000000000000000000600082015250565b6000611682601383611130565b915061168d8261164c565b602082019050919050565b600060208201905081810360008301526116b181611675565b9050919050565b7f4e487b7100000000000000000000000000000000000000000000000000000000600052603260045260246000fd5b7f4e487b7100000000000000000000000000000000000000000000000000000000600052602260045260246000fd5b6000600282049050600182168061172e57607f821691505b602082108103611741576117406116e7565b5b50919050565b7f4f6e6c792074686520626574746f722063616e20736574746c6520746865206260008201527f6574000000000000000000000000000000000000000000000000000000000000602082015250565b60006117a3602283611130565b91506117ae82611747565b604082019050919050565b600060208201905081810360008301526117d281611796565b9050919050565b7f42657420697320616c726561647920736574746c656400000000000000000000600082015250565b600061180f601683611130565b915061181a826117d9565b602082019050919050565b6000602082019050818103600083015261183e81611802565b9050919050565b7f4265742074696d656672616d6520686173206e6f7420656c6170736564000000600082015250565b600061187b601d83611130565b915061188682611845565b602082019050919050565b600060208201905081810360008301526118aa8161186e565b9050919050565b60006060820190506118c66000830186611121565b6118d36020830185611121565b6118e0604083018461117a565b949350505050565b6000815190506118f781610ec3565b92915050565b60006020828403121561191357611912610eaf565b5b6000611921848285016118e8565b91505092915050565b7f4e487b7100000000000000000000000000000000000000000000000000000000600052601160045260246000fd5b600061196482610eb9565b915061196f83610eb9565b92508282019050808211156119875761198661192a565b5b92915050565b60006060820190506119a26000830186611121565b6119af6020830185611189565b6119bc604083018461117a565b949350505050565b7f42657420616d6f756e74206d7573742062652067726561746572207468616e2060008201527f3000000000000000000000000000000000000000000000000000000000000000602082015250565b6000611a20602183611130565b9150611a2b826119c4565b604082019050919050565b60006020820190508181036000830152611a4f81611a13565b9050919050565b7f42657420656e642074696d65206d75737420626520696e20746865206675747560008201527f7265000000000000000000000000000000000000000000000000000000000000602082015250565b6000611ab2602283611130565b9150611abd82611a56565b604082019050919050565b60006020820190508181036000830152611ae181611aa5565b9050919050565b6000611af382610eb9565b91507fffffffffffffffffffffffffffffffffffffffffffffffffffffffffffffffff8203611b2557611b2461192a565b5b600182019050919050565b60008190508160005260206000209050919050565b60006020601f8301049050919050565b600082821b905092915050565b600060088302611b927fffffffffffffffffffffffffffffffffffffffffffffffffffffffffffffffff82611b55565b611b9c8683611b55565b95508019841693508086168417925050509392505050565b6000611bcf611bca611bc584610eb9565b611577565b610eb9565b9050919050565b6000819050919050565b611be983611bb4565b611bfd611bf582611bd6565b848454611b62565b825550505050565b600090565b611c12611c05565b611c1d818484611be0565b505050565b5b81811015611c4157611c36600082611c0a565b600181019050611c23565b5050565b601f821115611c8657611c5781611b30565b611c6084611b45565b81016020851015611c6f578190505b611c83611c7b85611b45565b830182611c22565b50505b505050565b600082821c905092915050565b6000611ca960001984600802611c8b565b1980831691505092915050565b6000611cc28383611c98565b9150826002028217905092915050565b611cdb82610f5d565b67ffffffffffffffff811115611cf457611cf3611253565b5b611cfe8254611716565b611d09828285611c45565b600060209050601f831160018114611d3c5760008415611d2a578287015190505b611d348582611cb6565b865550611d9c565b601f198416611d4a86611b30565b60005b82811015611d7257848901518255600182019150602085019450602081019050611d4d565b86831015611d8f5784890151611d8b601f891682611c98565b8355505b6001600288020188555050505b505050505050565b6000604082019050611db96000830185611121565b611dc6602083018461117a565b939250505056fea2646970667358221220aa298dd7365c23c99de4affd77dfde4915685347ee576541b63537be1feabcba64736f6c63430008180033",
  "linkReferences": {},
  "deployedLinkReferences": {}
}